{
  "_format": "hh-sol-artifact-1",
  "contractName": "NFTMinter",
  "sourceName": "contracts/NFTMinter.sol",
  "abi": [
    {
      "inputs": [
        {
          "internalType": "string",
          "name": "_name",
          "type": "string"
        },
        {
          "internalType": "string",
          "name": "_symbol",
          "type": "string"
        },
        {
          "internalType": "uint256",
          "name": "_mintingFee",
          "type": "uint256"
        },
        {
          "internalType": "address",
          "name": "_treasuryAddress",
          "type": "address"
        }
      ],
      "stateMutability": "nonpayable",
      "type": "constructor"
    },
    {
      "anonymous": false,
      "inputs": [
        {
          "indexed": true,
          "internalType": "address",
          "name": "owner",
          "type": "address"
        },
        {
          "indexed": true,
          "internalType": "address",
          "name": "approved",
          "type": "address"
        },
        {
          "indexed": true,
          "internalType": "uint256",
          "name": "tokenId",
          "type": "uint256"
        }
      ],
      "name": "Approval",
      "type": "event"
    },
    {
      "anonymous": false,
      "inputs": [
        {
          "indexed": true,
          "internalType": "address",
          "name": "owner",
          "type": "address"
        },
        {
          "indexed": true,
          "internalType": "address",
          "name": "operator",
          "type": "address"
        },
        {
          "indexed": false,
          "internalType": "bool",
          "name": "approved",
          "type": "bool"
        }
      ],
      "name": "ApprovalForAll",
      "type": "event"
    },
    {
      "anonymous": false,
      "inputs": [
        {
          "indexed": false,
          "internalType": "uint256",
          "name": "_fromTokenId",
          "type": "uint256"
        },
        {
          "indexed": false,
          "internalType": "uint256",
          "name": "_toTokenId",
          "type": "uint256"
        }
      ],
      "name": "BatchMetadataUpdate",
      "type": "event"
    },
    {
      "anonymous": false,
      "inputs": [
        {
          "indexed": false,
          "internalType": "uint256",
          "name": "_tokenId",
          "type": "uint256"
        }
      ],
      "name": "MetadataUpdate",
      "type": "event"
    },
    {
      "anonymous": false,
      "inputs": [
        {
          "indexed": true,
          "internalType": "address",
          "name": "previousOwner",
          "type": "address"
        },
        {
          "indexed": true,
          "internalType": "address",
          "name": "newOwner",
          "type": "address"
        }
      ],
      "name": "OwnershipTransferred",
      "type": "event"
    },
    {
      "anonymous": false,
      "inputs": [
        {
          "indexed": true,
          "internalType": "address",
          "name": "from",
          "type": "address"
        },
        {
          "indexed": true,
          "internalType": "address",
          "name": "to",
          "type": "address"
        },
        {
          "indexed": true,
          "internalType": "uint256",
          "name": "tokenId",
          "type": "uint256"
        }
      ],
      "name": "Transfer",
      "type": "event"
    },
    {
      "inputs": [
        {
          "internalType": "address",
          "name": "to",
          "type": "address"
        },
        {
          "internalType": "uint256",
          "name": "tokenId",
          "type": "uint256"
        }
      ],
      "name": "approve",
      "outputs": [],
      "stateMutability": "nonpayable",
      "type": "function"
    },
    {
      "inputs": [
        {
          "internalType": "address",
          "name": "owner",
          "type": "address"
        }
      ],
      "name": "balanceOf",
      "outputs": [
        {
          "internalType": "uint256",
          "name": "",
          "type": "uint256"
        }
      ],
      "stateMutability": "view",
      "type": "function"
    },
    {
      "inputs": [],
      "name": "getAllNfts",
      "outputs": [
        {
          "components": [
            {
              "internalType": "uint256",
              "name": "id",
              "type": "uint256"
            },
            {
              "internalType": "string",
              "name": "uri",
              "type": "string"
            }
          ],
          "internalType": "struct NFTMinter.RenderNft[]",
          "name": "",
          "type": "tuple[]"
        }
      ],
      "stateMutability": "view",
      "type": "function"
    },
    {
      "inputs": [
        {
          "internalType": "uint256",
          "name": "tokenId",
          "type": "uint256"
        }
      ],
      "name": "getApproved",
      "outputs": [
        {
          "internalType": "address",
          "name": "",
          "type": "address"
        }
      ],
      "stateMutability": "view",
      "type": "function"
    },
    {
      "inputs": [],
      "name": "getMintingFee",
      "outputs": [
        {
          "internalType": "uint256",
          "name": "",
          "type": "uint256"
        }
      ],
      "stateMutability": "view",
      "type": "function"
    },
    {
      "inputs": [],
      "name": "getMyNfts",
      "outputs": [
        {
          "components": [
            {
              "internalType": "uint256",
              "name": "id",
              "type": "uint256"
            },
            {
              "internalType": "string",
              "name": "uri",
              "type": "string"
            }
          ],
          "internalType": "struct NFTMinter.RenderNft[]",
          "name": "",
          "type": "tuple[]"
        }
      ],
      "stateMutability": "view",
      "type": "function"
    },
    {
      "inputs": [
        {
          "internalType": "address",
          "name": "owner",
          "type": "address"
        },
        {
          "internalType": "address",
          "name": "operator",
          "type": "address"
        }
      ],
      "name": "isApprovedForAll",
      "outputs": [
        {
          "internalType": "bool",
          "name": "",
          "type": "bool"
        }
      ],
      "stateMutability": "view",
      "type": "function"
    },
    {
      "inputs": [
        {
          "internalType": "string",
          "name": "_tokenURI",
          "type": "string"
        }
      ],
      "name": "mintNFT",
      "outputs": [
        {
          "internalType": "uint256",
          "name": "",
          "type": "uint256"
        }
      ],
      "stateMutability": "payable",
      "type": "function"
    },
    {
      "inputs": [],
      "name": "name",
      "outputs": [
        {
          "internalType": "string",
          "name": "",
          "type": "string"
        }
      ],
      "stateMutability": "view",
      "type": "function"
    },
    {
      "inputs": [],
      "name": "owner",
      "outputs": [
        {
          "internalType": "address",
          "name": "",
          "type": "address"
        }
      ],
      "stateMutability": "view",
      "type": "function"
    },
    {
      "inputs": [
        {
          "internalType": "uint256",
          "name": "tokenId",
          "type": "uint256"
        }
      ],
      "name": "ownerOf",
      "outputs": [
        {
          "internalType": "address",
          "name": "",
          "type": "address"
        }
      ],
      "stateMutability": "view",
      "type": "function"
    },
    {
      "inputs": [],
      "name": "renounceOwnership",
      "outputs": [],
      "stateMutability": "nonpayable",
      "type": "function"
    },
    {
      "inputs": [
        {
          "internalType": "address",
          "name": "from",
          "type": "address"
        },
        {
          "internalType": "address",
          "name": "to",
          "type": "address"
        },
        {
          "internalType": "uint256",
          "name": "tokenId",
          "type": "uint256"
        }
      ],
      "name": "safeTransferFrom",
      "outputs": [],
      "stateMutability": "nonpayable",
      "type": "function"
    },
    {
      "inputs": [
        {
          "internalType": "address",
          "name": "from",
          "type": "address"
        },
        {
          "internalType": "address",
          "name": "to",
          "type": "address"
        },
        {
          "internalType": "uint256",
          "name": "tokenId",
          "type": "uint256"
        },
        {
          "internalType": "bytes",
          "name": "data",
          "type": "bytes"
        }
      ],
      "name": "safeTransferFrom",
      "outputs": [],
      "stateMutability": "nonpayable",
      "type": "function"
    },
    {
      "inputs": [
        {
          "internalType": "address",
          "name": "operator",
          "type": "address"
        },
        {
          "internalType": "bool",
          "name": "approved",
          "type": "bool"
        }
      ],
      "name": "setApprovalForAll",
      "outputs": [],
      "stateMutability": "nonpayable",
      "type": "function"
    },
    {
      "inputs": [
        {
          "internalType": "bytes4",
          "name": "interfaceId",
          "type": "bytes4"
        }
      ],
      "name": "supportsInterface",
      "outputs": [
        {
          "internalType": "bool",
          "name": "",
          "type": "bool"
        }
      ],
      "stateMutability": "view",
      "type": "function"
    },
    {
      "inputs": [],
      "name": "symbol",
      "outputs": [
        {
          "internalType": "string",
          "name": "",
          "type": "string"
        }
      ],
      "stateMutability": "view",
      "type": "function"
    },
    {
      "inputs": [
        {
          "internalType": "uint256",
          "name": "tokenId",
          "type": "uint256"
        }
      ],
      "name": "tokenURI",
      "outputs": [
        {
          "internalType": "string",
          "name": "",
          "type": "string"
        }
      ],
      "stateMutability": "view",
      "type": "function"
    },
    {
      "inputs": [
        {
          "internalType": "address",
          "name": "from",
          "type": "address"
        },
        {
          "internalType": "address",
          "name": "to",
          "type": "address"
        },
        {
          "internalType": "uint256",
          "name": "tokenId",
          "type": "uint256"
        }
      ],
      "name": "transferFrom",
      "outputs": [],
      "stateMutability": "nonpayable",
      "type": "function"
    },
    {
      "inputs": [
        {
          "internalType": "address",
          "name": "newOwner",
          "type": "address"
        }
      ],
      "name": "transferOwnership",
      "outputs": [],
      "stateMutability": "nonpayable",
      "type": "function"
    },
    {
      "inputs": [],
      "name": "treasuryAddress",
      "outputs": [
        {
          "internalType": "address",
          "name": "",
          "type": "address"
        }
      ],
      "stateMutability": "view",
      "type": "function"
    }
  ],
  "bytecode": "0x60806040523480156200001157600080fd5b506040516200359f3803806200359f83398181016040528101906200003791906200037a565b83838160009080519060200190620000519291906200022a565b5080600190805190602001906200006a9291906200022a565b5050506200008d620000816200015c60201b60201c565b6200016460201b60201c565b81600881905550600073ffffffffffffffffffffffffffffffffffffffff168173ffffffffffffffffffffffffffffffffffffffff1614620001105780600a60006101000a81548173ffffffffffffffffffffffffffffffffffffffff021916908373ffffffffffffffffffffffffffffffffffffffff16021790555062000152565b33600a60006101000a81548173ffffffffffffffffffffffffffffffffffffffff021916908373ffffffffffffffffffffffffffffffffffffffff1602179055505b50505050620005fa565b600033905090565b6000600760009054906101000a900473ffffffffffffffffffffffffffffffffffffffff16905081600760006101000a81548173ffffffffffffffffffffffffffffffffffffffff021916908373ffffffffffffffffffffffffffffffffffffffff1602179055508173ffffffffffffffffffffffffffffffffffffffff168173ffffffffffffffffffffffffffffffffffffffff167f8be0079c531659141344cd1fd0a4f28419497f9722a3daafe3b4186f6b6457e060405160405180910390a35050565b8280546200023890620004eb565b90600052602060002090601f0160209004810192826200025c5760008555620002a8565b82601f106200027757805160ff1916838001178555620002a8565b82800160010185558215620002a8579182015b82811115620002a75782518255916020019190600101906200028a565b5b509050620002b79190620002bb565b5090565b5b80821115620002d6576000816000905550600101620002bc565b5090565b6000620002f1620002eb8462000441565b62000418565b9050828152602081018484840111156200030a57600080fd5b62000317848285620004b5565b509392505050565b6000815190506200033081620005c6565b92915050565b600082601f8301126200034857600080fd5b81516200035a848260208601620002da565b91505092915050565b6000815190506200037481620005e0565b92915050565b600080600080608085870312156200039157600080fd5b600085015167ffffffffffffffff811115620003ac57600080fd5b620003ba8782880162000336565b945050602085015167ffffffffffffffff811115620003d857600080fd5b620003e68782880162000336565b9350506040620003f98782880162000363565b92505060606200040c878288016200031f565b91505092959194509250565b60006200042462000437565b905062000432828262000521565b919050565b6000604051905090565b600067ffffffffffffffff8211156200045f576200045e62000586565b5b6200046a82620005b5565b9050602081019050919050565b600062000484826200048b565b9050919050565b600073ffffffffffffffffffffffffffffffffffffffff82169050919050565b6000819050919050565b60005b83811015620004d5578082015181840152602081019050620004b8565b83811115620004e5576000848401525b50505050565b600060028204905060018216806200050457607f821691505b602082108114156200051b576200051a62000557565b5b50919050565b6200052c82620005b5565b810181811067ffffffffffffffff821117156200054e576200054d62000586565b5b80604052505050565b7f4e487b7100000000000000000000000000000000000000000000000000000000600052602260045260246000fd5b7f4e487b7100000000000000000000000000000000000000000000000000000000600052604160045260246000fd5b6000601f19601f8301169050919050565b620005d18162000477565b8114620005dd57600080fd5b50565b620005eb81620004ab565b8114620005f757600080fd5b50565b612f95806200060a6000396000f3fe60806040526004361061012a5760003560e01c8063732e8d73116100ab578063b88d4fde1161006f578063b88d4fde146103e0578063c5f956af14610409578063c87b56dd14610434578063e985e9c514610471578063f2fde38b146104ae578063fb37e883146104d75761012a565b8063732e8d731461030b5780638da5cb5b1461033657806395d89b4114610361578063a22cb4651461038c578063b59d88a9146103b55761012a565b806323b872dd116100f257806323b872dd1461022857806342842e0e146102515780636352211e1461027a57806370a08231146102b7578063715018a6146102f45761012a565b806301ffc9a71461012f578063047b07bf1461016c57806306fdde0314610197578063081812fc146101c2578063095ea7b3146101ff575b600080fd5b34801561013b57600080fd5b5061015660048036038101906101519190612198565b610507565b6040516101639190612674565b60405180910390f35b34801561017857600080fd5b50610181610568565b60405161018e9190612652565b60405180910390f35b3480156101a357600080fd5b506101ac6106df565b6040516101b9919061268f565b60405180910390f35b3480156101ce57600080fd5b506101e960048036038101906101e4919061222b565b610771565b6040516101f691906125eb565b60405180910390f35b34801561020b57600080fd5b506102266004803603810190610221919061215c565b6107b7565b005b34801561023457600080fd5b5061024f600480360381019061024a9190612056565b6108cf565b005b34801561025d57600080fd5b5061027860048036038101906102739190612056565b61092f565b005b34801561028657600080fd5b506102a1600480360381019061029c919061222b565b61094f565b6040516102ae91906125eb565b60405180910390f35b3480156102c357600080fd5b506102de60048036038101906102d99190611ff1565b6109d6565b6040516102eb9190612871565b60405180910390f35b34801561030057600080fd5b50610309610a8e565b005b34801561031757600080fd5b50610320610aa2565b60405161032d9190612652565b60405180910390f35b34801561034257600080fd5b5061034b610bbe565b60405161035891906125eb565b60405180910390f35b34801561036d57600080fd5b50610376610be8565b604051610383919061268f565b60405180910390f35b34801561039857600080fd5b506103b360048036038101906103ae9190612120565b610c7a565b005b3480156103c157600080fd5b506103ca610c90565b6040516103d79190612871565b60405180910390f35b3480156103ec57600080fd5b50610407600480360381019061040291906120a5565b610c9a565b005b34801561041557600080fd5b5061041e610cfc565b60405161042b91906125eb565b60405180910390f35b34801561044057600080fd5b5061045b6004803603810190610456919061222b565b610d22565b604051610468919061268f565b60405180910390f35b34801561047d57600080fd5b506104986004803603810190610493919061201a565b610ddf565b6040516104a59190612674565b60405180910390f35b3480156104ba57600080fd5b506104d560048036038101906104d09190611ff1565b610e73565b005b6104f160048036038101906104ec91906121ea565b610ef7565b6040516104fe9190612871565b60405180910390f35b6000634906490660e01b7bffffffffffffffffffffffffffffffffffffffffffffffffffffffff1916827bffffffffffffffffffffffffffffffffffffffffffffffffffffffff19161480610561575061056082610fdc565b5b9050919050565b6060600061057660096110be565b90506000610583336109d6565b905060008167ffffffffffffffff8111156105c7577f4e487b7100000000000000000000000000000000000000000000000000000000600052604160045260246000fd5b60405190808252806020026020018201604052801561060057816020015b6105ed611dfb565b8152602001906001900390816105e55790505b5090506000805b848110156106d4573373ffffffffffffffffffffffffffffffffffffffff1661062f8261094f565b73ffffffffffffffffffffffffffffffffffffffff1614156106c157600061065682610d22565b90506040518060400160405280838152602001828152508484815181106106a6577f4e487b7100000000000000000000000000000000000000000000000000000000600052603260045260246000fd5b602002602001018190525082806106bc90612aae565b935050505b80806106cc90612aae565b915050610607565b508194505050505090565b6060600080546106ee90612a4b565b80601f016020809104026020016040519081016040528092919081815260200182805461071a90612a4b565b80156107675780601f1061073c57610100808354040283529160200191610767565b820191906000526020600020905b81548152906001019060200180831161074a57829003601f168201915b5050505050905090565b600061077c826110cc565b6004600083815260200190815260200160002060009054906101000a900473ffffffffffffffffffffffffffffffffffffffff169050919050565b60006107c28261094f565b90508073ffffffffffffffffffffffffffffffffffffffff168373ffffffffffffffffffffffffffffffffffffffff161415610833576040517f08c379a000000000000000000000000000000000000000000000000000000000815260040161082a90612831565b60405180910390fd5b8073ffffffffffffffffffffffffffffffffffffffff16610852611117565b73ffffffffffffffffffffffffffffffffffffffff16148061088157506108808161087b611117565b610ddf565b5b6108c0576040517f08c379a00000000000000000000000000000000000000000000000000000000081526004016108b790612851565b60405180910390fd5b6108ca838361111f565b505050565b6108e06108da611117565b826111d8565b61091f576040517f08c379a0000000000000000000000000000000000000000000000000000000008152600401610916906126b1565b60405180910390fd5b61092a83838361126d565b505050565b61094a83838360405180602001604052806000815250610c9a565b505050565b60008061095b83611567565b9050600073ffffffffffffffffffffffffffffffffffffffff168173ffffffffffffffffffffffffffffffffffffffff1614156109cd576040517f08c379a00000000000000000000000000000000000000000000000000000000081526004016109c490612811565b60405180910390fd5b80915050919050565b60008073ffffffffffffffffffffffffffffffffffffffff168273ffffffffffffffffffffffffffffffffffffffff161415610a47576040517f08c379a0000000000000000000000000000000000000000000000000000000008152600401610a3e906127b1565b60405180910390fd5b600360008373ffffffffffffffffffffffffffffffffffffffff1673ffffffffffffffffffffffffffffffffffffffff168152602001908152602001600020549050919050565b610a966115a4565b610aa06000611622565b565b60606000610ab060096110be565b905060008167ffffffffffffffff811115610af4577f4e487b7100000000000000000000000000000000000000000000000000000000600052604160045260246000fd5b604051908082528060200260200182016040528015610b2d57816020015b610b1a611dfb565b815260200190600190039081610b125790505b50905060005b82811015610bb5576000610b4682610d22565b9050604051806040016040528083815260200182815250838381518110610b96577f4e487b7100000000000000000000000000000000000000000000000000000000600052603260045260246000fd5b6020026020010181905250508080610bad90612aae565b915050610b33565b50809250505090565b6000600760009054906101000a900473ffffffffffffffffffffffffffffffffffffffff16905090565b606060018054610bf790612a4b565b80601f0160208091040260200160405190810160405280929190818152602001828054610c2390612a4b565b8015610c705780601f10610c4557610100808354040283529160200191610c70565b820191906000526020600020905b815481529060010190602001808311610c5357829003601f168201915b5050505050905090565b610c8c610c85611117565b83836116e8565b5050565b6000600854905090565b610cab610ca5611117565b836111d8565b610cea576040517f08c379a0000000000000000000000000000000000000000000000000000000008152600401610ce1906126b1565b60405180910390fd5b610cf684848484611855565b50505050565b600a60009054906101000a900473ffffffffffffffffffffffffffffffffffffffff1681565b6060610d2d826118b1565b610d3657600080fd5b6000600b60008481526020019081526020016000208054610d5690612a4b565b80601f0160208091040260200160405190810160405280929190818152602001828054610d8290612a4b565b8015610dcf5780601f10610da457610100808354040283529160200191610dcf565b820191906000526020600020905b815481529060010190602001808311610db257829003601f168201915b5050505050905080915050919050565b6000600560008473ffffffffffffffffffffffffffffffffffffffff1673ffffffffffffffffffffffffffffffffffffffff16815260200190815260200160002060008373ffffffffffffffffffffffffffffffffffffffff1673ffffffffffffffffffffffffffffffffffffffff16815260200190815260200160002060009054906101000a900460ff16905092915050565b610e7b6115a4565b600073ffffffffffffffffffffffffffffffffffffffff168173ffffffffffffffffffffffffffffffffffffffff161415610eeb576040517f08c379a0000000000000000000000000000000000000000000000000000000008152600401610ee2906126f1565b60405180910390fd5b610ef481611622565b50565b6000600854341015610f3e576040517f08c379a0000000000000000000000000000000000000000000000000000000008152600401610f3590612791565b60405180910390fd5b6000610f4a60096110be565b9050610f5633826118f2565b610f608184611910565b600a60009054906101000a900473ffffffffffffffffffffffffffffffffffffffff1673ffffffffffffffffffffffffffffffffffffffff166108fc349081150290604051600060405180830381858888f19350505050158015610fc8573d6000803e3d6000fd5b50610fd3600961193c565b80915050919050565b60007f80ac58cd000000000000000000000000000000000000000000000000000000007bffffffffffffffffffffffffffffffffffffffffffffffffffffffff1916827bffffffffffffffffffffffffffffffffffffffffffffffffffffffff191614806110a757507f5b5e139f000000000000000000000000000000000000000000000000000000007bffffffffffffffffffffffffffffffffffffffffffffffffffffffff1916827bffffffffffffffffffffffffffffffffffffffffffffffffffffffff1916145b806110b757506110b682611952565b5b9050919050565b600081600001549050919050565b6110d5816118b1565b611114576040517f08c379a000000000000000000000000000000000000000000000000000000000815260040161110b90612811565b60405180910390fd5b50565b600033905090565b816004600083815260200190815260200160002060006101000a81548173ffffffffffffffffffffffffffffffffffffffff021916908373ffffffffffffffffffffffffffffffffffffffff160217905550808273ffffffffffffffffffffffffffffffffffffffff166111928361094f565b73ffffffffffffffffffffffffffffffffffffffff167f8c5be1e5ebec7d5bd14f71427d1e84f3dd0314c0f7b2291e5b200ac8c7c3b92560405160405180910390a45050565b6000806111e48361094f565b90508073ffffffffffffffffffffffffffffffffffffffff168473ffffffffffffffffffffffffffffffffffffffff16148061122657506112258185610ddf565b5b8061126457508373ffffffffffffffffffffffffffffffffffffffff1661124c84610771565b73ffffffffffffffffffffffffffffffffffffffff16145b91505092915050565b8273ffffffffffffffffffffffffffffffffffffffff1661128d8261094f565b73ffffffffffffffffffffffffffffffffffffffff16146112e3576040517f08c379a00000000000000000000000000000000000000000000000000000000081526004016112da90612711565b60405180910390fd5b600073ffffffffffffffffffffffffffffffffffffffff168273ffffffffffffffffffffffffffffffffffffffff161415611353576040517f08c379a000000000000000000000000000000000000000000000000000000000815260040161134a90612751565b60405180910390fd5b61136083838360016119bc565b8273ffffffffffffffffffffffffffffffffffffffff166113808261094f565b73ffffffffffffffffffffffffffffffffffffffff16146113d6576040517f08c379a00000000000000000000000000000000000000000000000000000000081526004016113cd90612711565b60405180910390fd5b6004600082815260200190815260200160002060006101000a81549073ffffffffffffffffffffffffffffffffffffffff02191690556001600360008573ffffffffffffffffffffffffffffffffffffffff1673ffffffffffffffffffffffffffffffffffffffff168152602001908152602001600020600082825403925050819055506001600360008473ffffffffffffffffffffffffffffffffffffffff1673ffffffffffffffffffffffffffffffffffffffff16815260200190815260200160002060008282540192505081905550816002600083815260200190815260200160002060006101000a81548173ffffffffffffffffffffffffffffffffffffffff021916908373ffffffffffffffffffffffffffffffffffffffff160217905550808273ffffffffffffffffffffffffffffffffffffffff168473ffffffffffffffffffffffffffffffffffffffff167fddf252ad1be2c89b69c2b068fc378daa952ba7f163c4a11628f55a4df523b3ef60405160405180910390a461156283838360016119c2565b505050565b60006002600083815260200190815260200160002060009054906101000a900473ffffffffffffffffffffffffffffffffffffffff169050919050565b6115ac611117565b73ffffffffffffffffffffffffffffffffffffffff166115ca610bbe565b73ffffffffffffffffffffffffffffffffffffffff1614611620576040517f08c379a0000000000000000000000000000000000000000000000000000000008152600401611617906127f1565b60405180910390fd5b565b6000600760009054906101000a900473ffffffffffffffffffffffffffffffffffffffff16905081600760006101000a81548173ffffffffffffffffffffffffffffffffffffffff021916908373ffffffffffffffffffffffffffffffffffffffff1602179055508173ffffffffffffffffffffffffffffffffffffffff168173ffffffffffffffffffffffffffffffffffffffff167f8be0079c531659141344cd1fd0a4f28419497f9722a3daafe3b4186f6b6457e060405160405180910390a35050565b8173ffffffffffffffffffffffffffffffffffffffff168373ffffffffffffffffffffffffffffffffffffffff161415611757576040517f08c379a000000000000000000000000000000000000000000000000000000000815260040161174e90612771565b60405180910390fd5b80600560008573ffffffffffffffffffffffffffffffffffffffff1673ffffffffffffffffffffffffffffffffffffffff16815260200190815260200160002060008473ffffffffffffffffffffffffffffffffffffffff1673ffffffffffffffffffffffffffffffffffffffff16815260200190815260200160002060006101000a81548160ff0219169083151502179055508173ffffffffffffffffffffffffffffffffffffffff168373ffffffffffffffffffffffffffffffffffffffff167f17307eab39ab6107e8899845ad3d59bd9653f200f220920489ca2b5937696c31836040516118489190612674565b60405180910390a3505050565b61186084848461126d565b61186c848484846119c8565b6118ab576040517f08c379a00000000000000000000000000000000000000000000000000000000081526004016118a2906126d1565b60405180910390fd5b50505050565b60008073ffffffffffffffffffffffffffffffffffffffff166118d383611567565b73ffffffffffffffffffffffffffffffffffffffff1614159050919050565b61190c828260405180602001604052806000815250611b5f565b5050565b80600b60008481526020019081526020016000209080519060200190611937929190611e15565b505050565b6001816000016000828254019250508190555050565b60007f01ffc9a7000000000000000000000000000000000000000000000000000000007bffffffffffffffffffffffffffffffffffffffffffffffffffffffff1916827bffffffffffffffffffffffffffffffffffffffffffffffffffffffff1916149050919050565b50505050565b50505050565b60006119e98473ffffffffffffffffffffffffffffffffffffffff16611bba565b15611b52578373ffffffffffffffffffffffffffffffffffffffff1663150b7a02611a12611117565b8786866040518563ffffffff1660e01b8152600401611a349493929190612606565b602060405180830381600087803b158015611a4e57600080fd5b505af1925050508015611a7f57506040513d601f19601f82011682018060405250810190611a7c91906121c1565b60015b611b02573d8060008114611aaf576040519150601f19603f3d011682016040523d82523d6000602084013e611ab4565b606091505b50600081511415611afa576040517f08c379a0000000000000000000000000000000000000000000000000000000008152600401611af1906126d1565b60405180910390fd5b805181602001fd5b63150b7a0260e01b7bffffffffffffffffffffffffffffffffffffffffffffffffffffffff1916817bffffffffffffffffffffffffffffffffffffffffffffffffffffffff191614915050611b57565b600190505b949350505050565b611b698383611bdd565b611b7660008484846119c8565b611bb5576040517f08c379a0000000000000000000000000000000000000000000000000000000008152600401611bac906126d1565b60405180910390fd5b505050565b6000808273ffffffffffffffffffffffffffffffffffffffff163b119050919050565b600073ffffffffffffffffffffffffffffffffffffffff168273ffffffffffffffffffffffffffffffffffffffff161415611c4d576040517f08c379a0000000000000000000000000000000000000000000000000000000008152600401611c44906127d1565b60405180910390fd5b611c56816118b1565b15611c96576040517f08c379a0000000000000000000000000000000000000000000000000000000008152600401611c8d90612731565b60405180910390fd5b611ca46000838360016119bc565b611cad816118b1565b15611ced576040517f08c379a0000000000000000000000000000000000000000000000000000000008152600401611ce490612731565b60405180910390fd5b6001600360008473ffffffffffffffffffffffffffffffffffffffff1673ffffffffffffffffffffffffffffffffffffffff16815260200190815260200160002060008282540192505081905550816002600083815260200190815260200160002060006101000a81548173ffffffffffffffffffffffffffffffffffffffff021916908373ffffffffffffffffffffffffffffffffffffffff160217905550808273ffffffffffffffffffffffffffffffffffffffff16600073ffffffffffffffffffffffffffffffffffffffff167fddf252ad1be2c89b69c2b068fc378daa952ba7f163c4a11628f55a4df523b3ef60405160405180910390a4611df76000838360016119c2565b5050565b604051806040016040528060008152602001606081525090565b828054611e2190612a4b565b90600052602060002090601f016020900481019282611e435760008555611e8a565b82601f10611e5c57805160ff1916838001178555611e8a565b82800160010185558215611e8a579182015b82811115611e89578251825591602001919060010190611e6e565b5b509050611e979190611e9b565b5090565b5b80821115611eb4576000816000905550600101611e9c565b5090565b6000611ecb611ec6846128b1565b61288c565b905082815260208101848484011115611ee357600080fd5b611eee848285612a09565b509392505050565b6000611f09611f04846128e2565b61288c565b905082815260208101848484011115611f2157600080fd5b611f2c848285612a09565b509392505050565b600081359050611f4381612f03565b92915050565b600081359050611f5881612f1a565b92915050565b600081359050611f6d81612f31565b92915050565b600081519050611f8281612f31565b92915050565b600082601f830112611f9957600080fd5b8135611fa9848260208601611eb8565b91505092915050565b600082601f830112611fc357600080fd5b8135611fd3848260208601611ef6565b91505092915050565b600081359050611feb81612f48565b92915050565b60006020828403121561200357600080fd5b600061201184828501611f34565b91505092915050565b6000806040838503121561202d57600080fd5b600061203b85828601611f34565b925050602061204c85828601611f34565b9150509250929050565b60008060006060848603121561206b57600080fd5b600061207986828701611f34565b935050602061208a86828701611f34565b925050604061209b86828701611fdc565b9150509250925092565b600080600080608085870312156120bb57600080fd5b60006120c987828801611f34565b94505060206120da87828801611f34565b93505060406120eb87828801611fdc565b925050606085013567ffffffffffffffff81111561210857600080fd5b61211487828801611f88565b91505092959194509250565b6000806040838503121561213357600080fd5b600061214185828601611f34565b925050602061215285828601611f49565b9150509250929050565b6000806040838503121561216f57600080fd5b600061217d85828601611f34565b925050602061218e85828601611fdc565b9150509250929050565b6000602082840312156121aa57600080fd5b60006121b884828501611f5e565b91505092915050565b6000602082840312156121d357600080fd5b60006121e184828501611f73565b91505092915050565b6000602082840312156121fc57600080fd5b600082013567ffffffffffffffff81111561221657600080fd5b61222284828501611fb2565b91505092915050565b60006020828403121561223d57600080fd5b600061224b84828501611fdc565b91505092915050565b60006122608383612590565b905092915050565b61227181612995565b82525050565b600061228282612923565b61228c8185612951565b93508360208202850161229e85612913565b8060005b858110156122da57848403895281516122bb8582612254565b94506122c683612944565b925060208a019950506001810190506122a2565b50829750879550505050505092915050565b6122f5816129a7565b82525050565b60006123068261292e565b6123108185612962565b9350612320818560208601612a18565b61232981612b84565b840191505092915050565b600061233f82612939565b6123498185612973565b9350612359818560208601612a18565b61236281612b84565b840191505092915050565b600061237882612939565b6123828185612984565b9350612392818560208601612a18565b61239b81612b84565b840191505092915050565b60006123b3602d83612984565b91506123be82612b95565b604082019050919050565b60006123d6603283612984565b91506123e182612be4565b604082019050919050565b60006123f9602683612984565b915061240482612c33565b604082019050919050565b600061241c602583612984565b915061242782612c82565b604082019050919050565b600061243f601c83612984565b915061244a82612cd1565b602082019050919050565b6000612462602483612984565b915061246d82612cfa565b604082019050919050565b6000612485601983612984565b915061249082612d49565b602082019050919050565b60006124a8601483612984565b91506124b382612d72565b602082019050919050565b60006124cb602983612984565b91506124d682612d9b565b604082019050919050565b60006124ee602083612984565b91506124f982612dea565b602082019050919050565b6000612511602083612984565b915061251c82612e13565b602082019050919050565b6000612534601883612984565b915061253f82612e3c565b602082019050919050565b6000612557602183612984565b915061256282612e65565b604082019050919050565b600061257a603d83612984565b915061258582612eb4565b604082019050919050565b60006040830160008301516125a860008601826125cd565b50602083015184820360208601526125c08282612334565b9150508091505092915050565b6125d6816129ff565b82525050565b6125e5816129ff565b82525050565b60006020820190506126006000830184612268565b92915050565b600060808201905061261b6000830187612268565b6126286020830186612268565b61263560408301856125dc565b818103606083015261264781846122fb565b905095945050505050565b6000602082019050818103600083015261266c8184612277565b905092915050565b600060208201905061268960008301846122ec565b92915050565b600060208201905081810360008301526126a9818461236d565b905092915050565b600060208201905081810360008301526126ca816123a6565b9050919050565b600060208201905081810360008301526126ea816123c9565b9050919050565b6000602082019050818103600083015261270a816123ec565b9050919050565b6000602082019050818103600083015261272a8161240f565b9050919050565b6000602082019050818103600083015261274a81612432565b9050919050565b6000602082019050818103600083015261276a81612455565b9050919050565b6000602082019050818103600083015261278a81612478565b9050919050565b600060208201905081810360008301526127aa8161249b565b9050919050565b600060208201905081810360008301526127ca816124be565b9050919050565b600060208201905081810360008301526127ea816124e1565b9050919050565b6000602082019050818103600083015261280a81612504565b9050919050565b6000602082019050818103600083015261282a81612527565b9050919050565b6000602082019050818103600083015261284a8161254a565b9050919050565b6000602082019050818103600083015261286a8161256d565b9050919050565b600060208201905061288660008301846125dc565b92915050565b60006128966128a7565b90506128a28282612a7d565b919050565b6000604051905090565b600067ffffffffffffffff8211156128cc576128cb612b55565b5b6128d582612b84565b9050602081019050919050565b600067ffffffffffffffff8211156128fd576128fc612b55565b5b61290682612b84565b9050602081019050919050565b6000819050602082019050919050565b600081519050919050565b600081519050919050565b600081519050919050565b6000602082019050919050565b600082825260208201905092915050565b600082825260208201905092915050565b600082825260208201905092915050565b600082825260208201905092915050565b60006129a0826129df565b9050919050565b60008115159050919050565b60007fffffffff0000000000000000000000000000000000000000000000000000000082169050919050565b600073ffffffffffffffffffffffffffffffffffffffff82169050919050565b6000819050919050565b82818337600083830152505050565b60005b83811015612a36578082015181840152602081019050612a1b565b83811115612a45576000848401525b50505050565b60006002820490506001821680612a6357607f821691505b60208210811415612a7757612a76612b26565b5b50919050565b612a8682612b84565b810181811067ffffffffffffffff82111715612aa557612aa4612b55565b5b80604052505050565b6000612ab9826129ff565b91507fffffffffffffffffffffffffffffffffffffffffffffffffffffffffffffffff821415612aec57612aeb612af7565b5b600182019050919050565b7f4e487b7100000000000000000000000000000000000000000000000000000000600052601160045260246000fd5b7f4e487b7100000000000000000000000000000000000000000000000000000000600052602260045260246000fd5b7f4e487b7100000000000000000000000000000000000000000000000000000000600052604160045260246000fd5b6000601f19601f8301169050919050565b7f4552433732313a2063616c6c6572206973206e6f7420746f6b656e206f776e6560008201527f72206f7220617070726f76656400000000000000000000000000000000000000602082015250565b7f4552433732313a207472616e7366657220746f206e6f6e20455243373231526560008201527f63656976657220696d706c656d656e7465720000000000000000000000000000602082015250565b7f4f776e61626c653a206e6577206f776e657220697320746865207a65726f206160008201527f6464726573730000000000000000000000000000000000000000000000000000602082015250565b7f4552433732313a207472616e736665722066726f6d20696e636f72726563742060008201527f6f776e6572000000000000000000000000000000000000000000000000000000602082015250565b7f4552433732313a20746f6b656e20616c7265616479206d696e74656400000000600082015250565b7f4552433732313a207472616e7366657220746f20746865207a65726f2061646460008201527f7265737300000000000000000000000000000000000000000000000000000000602082015250565b7f4552433732313a20617070726f766520746f2063616c6c657200000000000000600082015250565b7f6d75737420706179206d696e74696e6720666565000000000000000000000000600082015250565b7f4552433732313a2061646472657373207a65726f206973206e6f74206120766160008201527f6c6964206f776e65720000000000000000000000000000000000000000000000602082015250565b7f4552433732313a206d696e7420746f20746865207a65726f2061646472657373600082015250565b7f4f776e61626c653a2063616c6c6572206973206e6f7420746865206f776e6572600082015250565b7f4552433732313a20696e76616c696420746f6b656e2049440000000000000000600082015250565b7f4552433732313a20617070726f76616c20746f2063757272656e74206f776e6560008201527f7200000000000000000000000000000000000000000000000000000000000000602082015250565b7f4552433732313a20617070726f76652063616c6c6572206973206e6f7420746f60008201527f6b656e206f776e6572206f7220617070726f76656420666f7220616c6c000000602082015250565b612f0c81612995565b8114612f1757600080fd5b50565b612f23816129a7565b8114612f2e57600080fd5b50565b612f3a816129b3565b8114612f4557600080fd5b50565b612f51816129ff565b8114612f5c57600080fd5b5056fea2646970667358221220149af5314f9741221c6b972971b3d7003e929852d3c8cba72fac12ef4c45a64664736f6c63430008040033",
  "linkReferences": {},
  "deployedLinkReferences": {}
}